:020000040000FA
:0400000007EF00F016
:100008005482FFED19F0E2EF23F0000180BF18EFF2
:1000180000F0805107E10A0E7F5DD8B016EF00F0BE
:1000280018EF00F0B6EF00F080BF26EF00F0805127
:1000380007E1640E7F5DD8B024EF00F026EF00F0F2
:10004800B6EF00F0200E506E200E4F6E7F518011DB
:10005800D8A431EF00F033EF00F037EF00F0300EA6
:100068004E6E86EF06F07F058011D8A43EEF00F0B3
:1000780040EF00F044EF00F0310E4E6E86EF06F0D0
:10008800020E7F198011D8A44CEF00F04EEF00F05B
:1000980052EF00F0320E4E6E86EF06F0030E7F1917
:1000A8008011D8A45AEF00F05CEF00F060EF00F088
:1000B800330E4E6E86EF06F0040E7F198011D8A419
:1000C80068EF00F06AEF00F06EEF00F0340E4E6E4D
:1000D80086EF06F0050E7F198011D8A476EF00F0A0
:1000E80078EF00F07CEF00F0350E4E6E86EF06F0EC
:1000F800060E7F198011D8A484EF00F086EF00F077
:100108008AEF00F0360E4E6E86EF06F0070E7F1966
:100118008011D8A492EF00F094EF00F098EF00F06F
:10012800370E4E6E86EF06F0080E7F198011D8A4A0
:10013800A0EF00F0A2EF00F0A6EF00F0380E4E6E30
:1001480086EF06F0090E7F198011D8A4AEEF00F0F3
:10015800B0EF00F0B4EF00F0390E4E6E86EF06F007
:1001680086EF06F00A0E7F198011D8A4BEEF00F0C2
:10017800C0EF00F0C8EF00F0200E506E310E4F6E49
:10018800300E4E6E86EF06F080BFD4EF00F080513F
:1001980009E10B0E7F5DD8A0D4EF00F0D6EF00F098
:1001A80076EF06F080BFE4EF00F0805107E1640EBF
:1001B8007F5DD8B0E2EF00F0E4EF00F076EF06F0F4
:1001C800200E506E0B0E7F198011D8A4EEEF00F0B0
:1001D800F0EF00F0F6EF00F0310E4F6E310E4E6E7C
:1001E80086EF06F00C0E7F198011D8A4FEEF00F000
:1001F80000EF01F006EF01F0310E4F6E320E4E6E39
:1002080086EF06F00D0E7F198011D8A40EEF01F0CD
:1002180010EF01F016EF01F0310E4F6E330E4E6EF7
:1002280086EF06F00E0E7F198011D8A41EEF01F09C
:1002380020EF01F026EF01F0310E4F6E340E4E6EB6
:1002480086EF06F00F0E7F198011D8A42EEF01F06B
:1002580030EF01F036EF01F0310E4F6E350E4E6E75
:1002680086EF06F0100E7F198011D8A43EEF01F03A
:1002780040EF01F046EF01F0310E4F6E360E4E6E34
:1002880086EF06F0110E7F198011D8A44EEF01F009
:1002980050EF01F056EF01F0310E4F6E370E4E6EF3
:1002A80086EF06F0120E7F198011D8A45EEF01F0D8
:1002B80060EF01F066EF01F0310E4F6E380E4E6EB2
:1002C80086EF06F0130E7F198011D8A46EEF01F0A7
:1002D80070EF01F076EF01F0310E4F6E390E4E6E71
:1002E80086EF06F0140E7F198011D8A47EEF01F076
:1002F80080EF01F086EF01F0320E4F6E300E4E6E39
:1003080086EF06F0150E7F198011D8A48EEF01F044
:1003180090EF01F096EF01F0320E4F6E310E4E6EF7
:1003280086EF06F0160E7F198011D8A49EEF01F013
:10033800A0EF01F0A6EF01F0320E4F6E320E4E6EB6
:1003480086EF06F0170E7F198011D8A4AEEF01F0E2
:10035800B0EF01F0B6EF01F0320E4F6E330E4E6E75
:1003680086EF06F0180E7F198011D8A4BEEF01F0B1
:10037800C0EF01F0C6EF01F0320E4F6E340E4E6E34
:1003880086EF06F0190E7F198011D8A4CEEF01F080
:10039800D0EF01F0D6EF01F0320E4F6E350E4E6EF3
:1003A80086EF06F01A0E7F198011D8A4DEEF01F04F
:1003B800E0EF01F0E6EF01F0320E4F6E360E4E6EB2
:1003C80086EF06F01B0E7F198011D8A4EEEF01F01E
:1003D800F0EF01F0F6EF01F0320E4F6E370E4E6E71
:1003E80086EF06F01C0E7F198011D8A4FEEF01F0ED
:1003F80000EF02F006EF02F0320E4F6E380E4E6E2E
:1004080086EF06F01D0E7F198011D8A40EEF02F0BA
:1004180010EF02F016EF02F0320E4F6E390E4E6EEC
:1004280086EF06F01E0E7F198011D8A41EEF02F089
:1004380020EF02F026EF02F0330E4F6E300E4E6EB4
:1004480086EF06F01F0E7F198011D8A42EEF02F058
:1004580030EF02F036EF02F0330E4F6E310E4E6E73
:1004680086EF06F0200E7F198011D8A43EEF02F027
:1004780040EF02F046EF02F0330E4F6E320E4E6E32
:1004880086EF06F0210E7F198011D8A44EEF02F0F6
:1004980050EF02F056EF02F0330E4F6E330E4E6EF1
:1004A80086EF06F0220E7F198011D8A45EEF02F0C5
:1004B80060EF02F066EF02F0330E4F6E340E4E6EB0
:1004C80086EF06F0230E7F198011D8A46EEF02F094
:1004D80070EF02F076EF02F0330E4F6E350E4E6E6F
:1004E80086EF06F0240E7F198011D8A47EEF02F063
:1004F80080EF02F086EF02F0330E4F6E360E4E6E2E
:1005080086EF06F0250E7F198011D8A48EEF02F031
:1005180090EF02F096EF02F0330E4F6E370E4E6EEC
:1005280086EF06F0260E7F198011D8A49EEF02F000
:10053800A0EF02F0A6EF02F0330E4F6E380E4E6EAB
:1005480086EF06F0270E7F198011D8A4AEEF02F0CF
:10055800B0EF02F0B6EF02F0330E4F6E390E4E6E6A
:1005680086EF06F0280E7F198011D8A4BEEF02F09E
:10057800C0EF02F0C6EF02F0340E4F6E300E4E6E32
:1005880086EF06F0290E7F198011D8A4CEEF02F06D
:10059800D0EF02F0D6EF02F0340E4F6E310E4E6EF1
:1005A80086EF06F02A0E7F198011D8A4DEEF02F03C
:1005B800E0EF02F0E6EF02F0340E4F6E320E4E6EB0
:1005C80086EF06F02B0E7F198011D8A4EEEF02F00B
:1005D800F0EF02F0F6EF02F0340E4F6E330E4E6E6F
:1005E80086EF06F02C0E7F198011D8A4FEEF02F0DA
:1005F80000EF03F006EF03F0340E4F6E340E4E6E2C
:1006080086EF06F02D0E7F198011D8A40EEF03F0A7
:1006180010EF03F016EF03F0340E4F6E350E4E6EEA
:1006280086EF06F02E0E7F198011D8A41EEF03F076
:1006380020EF03F026EF03F0340E4F6E360E4E6EA9
:1006480086EF06F02F0E7F198011D8A42EEF03F045
:1006580030EF03F036EF03F0340E4F6E370E4E6E68
:1006680086EF06F0300E7F198011D8A43EEF03F014
:1006780040EF03F046EF03F0340E4F6E380E4E6E27
:1006880086EF06F0310E7F198011D8A44EEF03F0E3
:1006980050EF03F056EF03F0340E4F6E390E4E6EE6
:1006A80086EF06F0320E7F198011D8A45EEF03F0B2
:1006B80060EF03F066EF03F0350E4F6E300E4E6EAE
:1006C80086EF06F0330E7F198011D8A46EEF03F081
:1006D80070EF03F076EF03F0350E4F6E310E4E6E6D
:1006E80086EF06F0340E7F198011D8A47EEF03F050
:1006F80080EF03F086EF03F0350E4F6E320E4E6E2C
:1007080086EF06F0350E7F198011D8A48EEF03F01E
:1007180090EF03F096EF03F0350E4F6E330E4E6EEA
:1007280086EF06F0360E7F198011D8A49EEF03F0ED
:10073800A0EF03F0A6EF03F0350E4F6E340E4E6EA9
:1007480086EF06F0370E7F198011D8A4AEEF03F0BC
:10075800B0EF03F0B6EF03F0350E4F6E350E4E6E68
:1007680086EF06F0380E7F198011D8A4BEEF03F08B
:10077800C0EF03F0C6EF03F0350E4F6E360E4E6E27
:1007880086EF06F0390E7F198011D8A4CEEF03F05A
:10079800D0EF03F0D6EF03F0350E4F6E370E4E6EE6
:1007A80086EF06F03A0E7F198011D8A4DEEF03F029
:1007B800E0EF03F0E6EF03F0350E4F6E380E4E6EA5
:1007C80086EF06F03B0E7F198011D8A4EEEF03F0F8
:1007D800F0EF03F0F6EF03F0350E4F6E390E4E6E64
:1007E80086EF06F03C0E7F198011D8A4FEEF03F0C7
:1007F80000EF04F006EF04F0360E4F6E300E4E6E2A
:1008080086EF06F03D0E7F198011D8A40EEF04F094
:1008180010EF04F016EF04F0360E4F6E310E4E6EE8
:1008280086EF06F03E0E7F198011D8A41EEF04F063
:1008380020EF04F026EF04F0360E4F6E320E4E6EA7
:1008480086EF06F03F0E7F198011D8A42EEF04F032
:1008580030EF04F036EF04F0360E4F6E330E4E6E66
:1008680086EF06F0400E7F198011D8A43EEF04F001
:1008780040EF04F046EF04F0360E4F6E340E4E6E25
:1008880086EF06F0410E7F198011D8A44EEF04F0D0
:1008980050EF04F056EF04F0360E4F6E350E4E6EE4
:1008A80086EF06F0420E7F198011D8A45EEF04F09F
:1008B80060EF04F066EF04F0360E4F6E360E4E6EA3
:1008C80086EF06F0430E7F198011D8A46EEF04F06E
:1008D80070EF04F076EF04F0360E4F6E370E4E6E62
:1008E80086EF06F0440E7F198011D8A47EEF04F03D
:1008F80080EF04F086EF04F0360E4F6E380E4E6E21
:1009080086EF06F0450E7F198011D8A48EEF04F00B
:1009180090EF04F096EF04F0360E4F6E390E4E6EDF
:1009280086EF06F0460E7F198011D8A49EEF04F0DA
:10093800A0EF04F0A6EF04F0370E4F6E300E4E6EA7
:1009480086EF06F0470E7F198011D8A4AEEF04F0A9
:10095800B0EF04F0B6EF04F0370E4F6E310E4E6E66
:1009680086EF06F0480E7F198011D8A4BEEF04F078
:10097800C0EF04F0C6EF04F0370E4F6E320E4E6E25
:1009880086EF06F0490E7F198011D8A4CEEF04F047
:10099800D0EF04F0D6EF04F0370E4F6E330E4E6EE4
:1009A80086EF06F04A0E7F198011D8A4DEEF04F016
:1009B800E0EF04F0E6EF04F0370E4F6E340E4E6EA3
:1009C80086EF06F04B0E7F198011D8A4EEEF04F0E5
:1009D800F0EF04F0F6EF04F0370E4F6E350E4E6E62
:1009E80086EF06F04C0E7F198011D8A4FEEF04F0B4
:1009F80000EF05F006EF05F0370E4F6E360E4E6E1F
:100A080086EF06F04D0E7F198011D8A40EEF05F081
:100A180010EF05F016EF05F0370E4F6E370E4E6EDD
:100A280086EF06F04E0E7F198011D8A41EEF05F050
:100A380020EF05F026EF05F0370E4F6E380E4E6E9C
:100A480086EF06F04F0E7F198011D8A42EEF05F01F
:100A580030EF05F036EF05F0370E4F6E390E4E6E5B
:100A680086EF06F0500E7F198011D8A43EEF05F0EE
:100A780040EF05F046EF05F0380E4F6E300E4E6E23
:100A880086EF06F0510E7F198011D8A44EEF05F0BD
:100A980050EF05F056EF05F0380E4F6E310E4E6EE2
:100AA80086EF06F0520E7F198011D8A45EEF05F08C
:100AB80060EF05F066EF05F0380E4F6E320E4E6EA1
:100AC80086EF06F0530E7F198011D8A46EEF05F05B
:100AD80070EF05F076EF05F0380E4F6E330E4E6E60
:100AE80086EF06F0540E7F198011D8A47EEF05F02A
:100AF80080EF05F086EF05F0380E4F6E340E4E6E1F
:100B080086EF06F0550E7F198011D8A48EEF05F0F8
:100B180090EF05F096EF05F0380E4F6E350E4E6EDD
:100B280086EF06F0560E7F198011D8A49EEF05F0C7
:100B3800A0EF05F0A6EF05F0380E4F6E360E4E6E9C
:100B480086EF06F0570E7F198011D8A4AEEF05F096
:100B5800B0EF05F0B6EF05F0380E4F6E370E4E6E5B
:100B680086EF06F0580E7F198011D8A4BEEF05F065
:100B7800C0EF05F0C6EF05F0380E4F6E380E4E6E1A
:100B880086EF06F0590E7F198011D8A4CEEF05F034
:100B9800D0EF05F0D6EF05F0380E4F6E390E4E6ED9
:100BA80086EF06F05A0E7F198011D8A4DEEF05F003
:100BB800E0EF05F0E6EF05F0390E4F6E300E4E6EA1
:100BC80086EF06F05B0E7F198011D8A4EEEF05F0D2
:100BD800F0EF05F0F6EF05F0390E4F6E310E4E6E60
:100BE80086EF06F05C0E7F198011D8A4FEEF05F0A1
:100BF80000EF06F006EF06F0390E4F6E320E4E6E1D
:100C080086EF06F05D0E7F198011D8A40EEF06F06E
:100C180010EF06F016EF06F0390E4F6E330E4E6EDB
:100C280086EF06F05E0E7F198011D8A41EEF06F03D
:100C380020EF06F026EF06F0390E4F6E340E4E6E9A
:100C480086EF06F05F0E7F198011D8A42EEF06F00C
:100C580030EF06F036EF06F0390E4F6E350E4E6E59
:100C680086EF06F0600E7F198011D8A43EEF06F0DB
:100C780040EF06F046EF06F0390E4F6E360E4E6E18
:100C880086EF06F0610E7F198011D8A44EEF06F0AA
:100C980050EF06F056EF06F0390E4F6E370E4E6ED7
:100CA80086EF06F0620E7F198011D8A45EEF06F079
:100CB80060EF06F066EF06F0390E4F6E380E4E6E96
:100CC80086EF06F0630E7F198011D8A46EEF06F048
:100CD80070EF06F0B4EF00F0390E4F6E390E4E6E1D
:100CE80086EF06F0640E7F198011D8A47EEF06F017
:100CF80080EF06F086EF06F0310E506E300E4F6E24
:100D0800300E4E6E1200000180BF96EF06F0805143
:100D180007E10A0E7F5DD8B094EF06F096EF06F073
:100D280034EF07F080BFA4EF06F0805107E1640EAE
:100D38007F5DD8B0A2EF06F0A4EF06F034EF07F01D
:100D4800200E536E200E526E7F518011D8A4AFEF43
:100D580006F0B1EF06F0B5EF06F0300E516E04EF75
:100D68000DF07F058011D8A4BCEF06F0BEEF06F0A9
:100D7800C2EF06F0310E516E04EF0DF0020E7F192E
:100D88008011D8A4CAEF06F0CCEF06F0D0EF06F039
:100D9800320E516E04EF0DF0030E7F198011D8A4A6
:100DA800D8EF06F0DAEF06F0DEEF06F0330E516EFC
:100DB80004EF0DF0040E7F198011D8A4E6EF06F0B9
:100DC800E8EF06F0ECEF06F0340E516E04EF0DF08C
:100DD800050E7F198011D8A4F4EF06F0F6EF06F09F
:100DE800FAEF06F0350E516E04EF0DF0060E7F197E
:100DF8008011D8A402EF07F004EF07F008EF07F01E
:100E0800360E516E04EF0DF0070E7F198011D8A42D
:100E180010EF07F012EF07F016EF07F0370E516EDC
:100E280004EF0DF0080E7F198011D8A41EEF07F00B
:100E380020EF07F024EF07F0380E516E04EF0DF0A5
:100E4800090E7F198011D8A42CEF07F02EEF07F0B8
:100E580032EF07F0390E516E04EF0DF004EF0DF08C
:100E68000A0E7F198011D8A43CEF07F03EEF07F077
:100E780046EF07F0200E536E310E526E300E516E53
:100E880004EF0DF080BF52EF07F0805109E10B0E1F
:100E98007F5DD8A052EF07F054EF07F0F4EF0CF0A5
:100EA80080BF62EF07F0805107E1640E7F5DD8B024
:100EB80060EF07F062EF07F0F4EF0CF0200E536ECE
:100EC8000B0E7F198011D8A46CEF07F06EEF07F0B6
:100ED80074EF07F0310E526E310E516E04EF0DF0C3
:100EE8000C0E7F198011D8A47CEF07F07EEF07F075
:100EF80084EF07F0310E526E320E516E04EF0DF092
:100F08000D0E7F198011D8A48CEF07F08EEF07F033
:100F180094EF07F0310E526E330E516E04EF0DF060
:100F28000E0E7F198011D8A49CEF07F09EEF07F0F2
:100F3800A4EF07F0310E526E340E516E04EF0DF02F
:100F48000F0E7F198011D8A4ACEF07F0AEEF07F0B1
:100F5800B4EF07F0310E526E350E516E04EF0DF0FE
:100F6800100E7F198011D8A4BCEF07F0BEEF07F070
:100F7800C4EF07F0310E526E360E516E04EF0DF0CD
:100F8800110E7F198011D8A4CCEF07F0CEEF07F02F
:100F9800D4EF07F0310E526E370E516E04EF0DF09C
:100FA800120E7F198011D8A4DCEF07F0DEEF07F0EE
:100FB800E4EF07F0310E526E380E516E04EF0DF06B
:100FC800130E7F198011D8A4ECEF07F0EEEF07F0AD
:100FD800F4EF07F0310E526E390E516E04EF0DF03A
:100FE800140E7F198011D8A4FCEF07F0FEEF07F06C
:100FF80004EF08F0320E526E300E516E04EF0DF011
:10100800150E7F198011D8A40CEF08F00EEF08F028
:1010180014EF08F0320E526E310E516E04EF0DF0DF
:10102800160E7F198011D8A41CEF08F01EEF08F0E7
:1010380024EF08F0320E526E320E516E04EF0DF0AE
:10104800170E7F198011D8A42CEF08F02EEF08F0A6
:1010580034EF08F0320E526E330E516E04EF0DF07D
:10106800180E7F198011D8A43CEF08F03EEF08F065
:1010780044EF08F0320E526E340E516E04EF0DF04C
:10108800190E7F198011D8A44CEF08F04EEF08F024
:1010980054EF08F0320E526E350E516E04EF0DF01B
:1010A8001A0E7F198011D8A45CEF08F05EEF08F0E3
:1010B80064EF08F0320E526E360E516E04EF0DF0EA
:1010C8001B0E7F198011D8A46CEF08F06EEF08F0A2
:1010D80074EF08F0320E526E370E516E04EF0DF0B9
:1010E8001C0E7F198011D8A47CEF08F07EEF08F061
:1010F80084EF08F0320E526E380E516E04EF0DF088
:101108001D0E7F198011D8A48CEF08F08EEF08F01F
:1011180094EF08F0320E526E390E516E04EF0DF056
:101128001E0E7F198011D8A49CEF08F09EEF08F0DE
:10113800A4EF08F0330E526E300E516E04EF0DF02E
:101148001F0E7F198011D8A4ACEF08F0AEEF08F09D
:10115800B4EF08F0330E526E310E516E04EF0DF0FD
:10116800200E7F198011D8A4BCEF08F0BEEF08F05C
:10117800C4EF08F0330E526E320E516E04EF0DF0CC
:10118800210E7F198011D8A4CCEF08F0CEEF08F01B
:10119800D4EF08F0330E526E330E516E04EF0DF09B
:1011A800220E7F198011D8A4DCEF08F0DEEF08F0DA
:1011B800E4EF08F0330E526E340E516E04EF0DF06A
:1011C800230E7F198011D8A4ECEF08F0EEEF08F099
:1011D800F4EF08F0330E526E350E516E04EF0DF039
:1011E800240E7F198011D8A4FCEF08F0FEEF08F058
:1011F80004EF09F0330E526E360E516E04EF0DF007
:10120800250E7F198011D8A40CEF09F00EEF09F014
:1012180014EF09F0330E526E370E516E04EF0DF0D5
:10122800260E7F198011D8A41CEF09F01EEF09F0D3
:1012380024EF09F0330E526E380E516E04EF0DF0A4
:10124800270E7F198011D8A42CEF09F02EEF09F092
:1012580034EF09F0330E526E390E516E04EF0DF073
:10126800280E7F198011D8A43CEF09F03EEF09F051
:1012780044EF09F0340E526E300E516E04EF0DF04B
:10128800290E7F198011D8A44CEF09F04EEF09F010
:1012980054EF09F0340E526E310E516E04EF0DF01A
:1012A8002A0E7F198011D8A45CEF09F05EEF09F0CF
:1012B80064EF09F0340E526E320E516E04EF0DF0E9
:1012C8002B0E7F198011D8A46CEF09F06EEF09F08E
:1012D80074EF09F0340E526E330E516E04EF0DF0B8
:1012E8002C0E7F198011D8A47CEF09F07EEF09F04D
:1012F80084EF09F0340E526E340E516E04EF0DF087
:101308002D0E7F198011D8A48CEF09F08EEF09F00B
:1013180094EF09F0340E526E350E516E04EF0DF055
:101328002E0E7F198011D8A49CEF09F09EEF09F0CA
:10133800A4EF09F0340E526E360E516E04EF0DF024
:101348002F0E7F198011D8A4ACEF09F0AEEF09F089
:10135800B4EF09F0340E526E370E516E04EF0DF0F3
:10136800300E7F198011D8A4BCEF09F0BEEF09F048
:10137800C4EF09F0340E526E380E516E04EF0DF0C2
:10138800310E7F198011D8A4CCEF09F0CEEF09F007
:10139800D4EF09F0340E526E390E516E04EF0DF091
:1013A800320E7F198011D8A4DCEF09F0DEEF09F0C6
:1013B800E4EF09F0350E526E300E516E04EF0DF069
:1013C800330E7F198011D8A4ECEF09F0EEEF09F085
:1013D800F4EF09F0350E526E310E516E04EF0DF038
:1013E800340E7F198011D8A4FCEF09F0FEEF09F044
:1013F80004EF0AF0350E526E320E516E04EF0DF006
:10140800350E7F198011D8A40CEF0AF00EEF0AF000
:1014180014EF0AF0350E526E330E516E04EF0DF0D4
:10142800360E7F198011D8A41CEF0AF01EEF0AF0BF
:1014380024EF0AF0350E526E340E516E04EF0DF0A3
:10144800370E7F198011D8A42CEF0AF02EEF0AF07E
:1014580034EF0AF0350E526E350E516E04EF0DF072
:10146800380E7F198011D8A43CEF0AF03EEF0AF03D
:1014780044EF0AF0350E526E360E516E04EF0DF041
:10148800390E7F198011D8A44CEF0AF04EEF0AF0FC
:1014980054EF0AF0350E526E370E516E04EF0DF010
:1014A8003A0E7F198011D8A45CEF0AF05EEF0AF0BB
:1014B80064EF0AF0350E526E380E516E04EF0DF0DF
:1014C8003B0E7F198011D8A46CEF0AF06EEF0AF07A
:1014D80074EF0AF0350E526E390E516E04EF0DF0AE
:1014E8003C0E7F198011D8A47CEF0AF07EEF0AF039
:1014F80084EF0AF0360E526E300E516E04EF0DF086
:101508003D0E7F198011D8A48CEF0AF08EEF0AF0F7
:1015180094EF0AF0360E526E310E516E04EF0DF054
:101528003E0E7F198011D8A49CEF0AF09EEF0AF0B6
:10153800A4EF0AF0360E526E320E516E04EF0DF023
:101548003F0E7F198011D8A4ACEF0AF0AEEF0AF075
:10155800B4EF0AF0360E526E330E516E04EF0DF0F2
:10156800400E7F198011D8A4BCEF0AF0BEEF0AF034
:10157800C4EF0AF0360E526E340E516E04EF0DF0C1
:10158800410E7F198011D8A4CCEF0AF0CEEF0AF0F3
:10159800D4EF0AF0360E526E350E516E04EF0DF090
:1015A800420E7F198011D8A4DCEF0AF0DEEF0AF0B2
:1015B800E4EF0AF0360E526E360E516E04EF0DF05F
:1015C800430E7F198011D8A4ECEF0AF0EEEF0AF071
:1015D800F4EF0AF0360E526E370E516E04EF0DF02E
:1015E800440E7F198011D8A4FCEF0AF0FEEF0AF030
:1015F80004EF0BF0360E526E380E516E04EF0DF0FC
:10160800450E7F198011D8A40CEF0BF00EEF0BF0EC
:1016180014EF0BF0360E526E390E516E04EF0DF0CA
:10162800460E7F198011D8A41CEF0BF01EEF0BF0AB
:1016380024EF0BF0370E526E300E516E04EF0DF0A2
:10164800470E7F198011D8A42CEF0BF02EEF0BF06A
:1016580034EF0BF0370E526E310E516E04EF0DF071
:10166800480E7F198011D8A43CEF0BF03EEF0BF029
:1016780044EF0BF0370E526E320E516E04EF0DF040
:10168800490E7F198011D8A44CEF0BF04EEF0BF0E8
:1016980054EF0BF0370E526E330E516E04EF0DF00F
:1016A8004A0E7F198011D8A45CEF0BF05EEF0BF0A7
:1016B80064EF0BF0370E526E340E516E04EF0DF0DE
:1016C8004B0E7F198011D8A46CEF0BF06EEF0BF066
:1016D80074EF0BF0370E526E350E516E04EF0DF0AD
:1016E8004C0E7F198011D8A47CEF0BF07EEF0BF025
:1016F80084EF0BF0370E526E360E516E04EF0DF07C
:101708004D0E7F198011D8A48CEF0BF08EEF0BF0E3
:1017180094EF0BF0370E526E370E516E04EF0DF04A
:101728004E0E7F198011D8A49CEF0BF09EEF0BF0A2
:10173800A4EF0BF0370E526E380E516E04EF0DF019
:101748004F0E7F198011D8A4ACEF0BF0AEEF0BF061
:10175800B4EF0BF0370E526E390E516E04EF0DF0E8
:10176800500E7F198011D8A4BCEF0BF0BEEF0BF020
:10177800C4EF0BF0380E526E300E516E04EF0DF0C0
:10178800510E7F198011D8A4CCEF0BF0CEEF0BF0DF
:10179800D4EF0BF0380E526E310E516E04EF0DF08F
:1017A800520E7F198011D8A4DCEF0BF0DEEF0BF09E
:1017B800E4EF0BF0380E526E320E516E04EF0DF05E
:1017C800530E7F198011D8A4ECEF0BF0EEEF0BF05D
:1017D800F4EF0BF0380E526E330E516E04EF0DF02D
:1017E800540E7F198011D8A4FCEF0BF0FEEF0BF01C
:1017F80004EF0CF0380E526E340E516E04EF0DF0FB
:10180800550E7F198011D8A40CEF0CF00EEF0CF0D8
:1018180014EF0CF0380E526E350E516E04EF0DF0C9
:10182800560E7F198011D8A41CEF0CF01EEF0CF097
:1018380024EF0CF0380E526E360E516E04EF0DF098
:10184800570E7F198011D8A42CEF0CF02EEF0CF056
:1018580034EF0CF0380E526E370E516E04EF0DF067
:10186800580E7F198011D8A43CEF0CF03EEF0CF015
:1018780044EF0CF0380E526E380E516E04EF0DF036
:10188800590E7F198011D8A44CEF0CF04EEF0CF0D4
:1018980054EF0CF0380E526E390E516E04EF0DF005
:1018A8005A0E7F198011D8A45CEF0CF05EEF0CF093
:1018B80064EF0CF0390E526E300E516E04EF0DF0DD
:1018C8005B0E7F198011D8A46CEF0CF06EEF0CF052
:1018D80074EF0CF0390E526E310E516E04EF0DF0AC
:1018E8005C0E7F198011D8A47CEF0CF07EEF0CF011
:1018F80084EF0CF0390E526E320E516E04EF0DF07B
:101908005D0E7F198011D8A48CEF0CF08EEF0CF0CF
:1019180094EF0CF0390E526E330E516E04EF0DF049
:101928005E0E7F198011D8A49CEF0CF09EEF0CF08E
:10193800A4EF0CF0390E526E340E516E04EF0DF018
:101948005F0E7F198011D8A4ACEF0CF0AEEF0CF04D
:10195800B4EF0CF0390E526E350E516E04EF0DF0E7
:10196800600E7F198011D8A4BCEF0CF0BEEF0CF00C
:10197800C4EF0CF0390E526E360E516E04EF0DF0B6
:10198800610E7F198011D8A4CCEF0CF0CEEF0CF0CB
:10199800D4EF0CF0390E526E370E516E04EF0DF085
:1019A800620E7F198011D8A4DCEF0CF0DEEF0CF08A
:1019B800E4EF0CF0390E526E380E516E04EF0DF054
:1019C800630E7F198011D8A4ECEF0CF0EEEF0CF049
:1019D80032EF07F0390E526E390E516E04EF0DF0EA
:1019E800640E7F198011D8A4FCEF0CF0FEEF0CF008
:1019F80004EF0DF0310E536E300E526E300E516EF4
:101A0800120002BE13EF0DF0025007E10A0E015C4E
:101A1800D8B011EF0DF013EF0DF0B1EF0DF002BEDD
:101A280021EF0DF0025007E1640E015CD8B01FEF02
:101A38000DF021EF0DF0B1EF0DF0200E506E200EDD
:101A48004F6E01500210D8A42CEF0DF02EEF0DF0C0
:101A580032EF0DF0300E4E6E81EF13F001040210DC
:101A6800D8A439EF0DF03BEF0DF03FEF0DF0310E3C
:101A78004E6E81EF13F0020E01180210D8A447EF42
:101A88000DF049EF0DF04DEF0DF0320E4E6E81EF77
:101A980013F0030E01180210D8A455EF0DF057EFFC
:101AA8000DF05BEF0DF0330E4E6E81EF13F0040E68
:101AB80001180210D8A463EF0DF065EF0DF069EF7F
:101AC8000DF0340E4E6E81EF13F0050E0118021062
:101AD800D8A471EF0DF073EF0DF077EF0DF0350E20
:101AE8004E6E81EF13F0060E01180210D8A47FEF96
:101AF8000DF081EF0DF085EF0DF0360E4E6E81EF93
:101B080013F0070E01180210D8A48DEF0DF08FEF17
:101B18000DF093EF0DF0370E4E6E81EF13F0080EB7
:101B280001180210D8A49BEF0DF09DEF0DF0A1EF66
:101B38000DF0380E4E6E81EF13F0090E01180210E9
:101B4800D8A4A9EF0DF0ABEF0DF0AFEF0DF0390E03
:101B58004E6E81EF13F081EF13F00A0E0118021098
:101B6800D8A4B9EF0DF0BBEF0DF0C3EF0DF0200EC8
:101B7800506E310E4F6E300E4E6E81EF13F002BE76
:101B8800CFEF0DF0025009E10B0E015CD8A0CFEFAA
:101B98000DF0D1EF0DF071EF13F002BEDFEF0DF095
:101BA800025007E1640E015CD8B0DDEF0DF0DFEF05
:101BB8000DF071EF13F0200E506E0B0E011802108D
:101BC800D8A4E9EF0DF0EBEF0DF0F1EF0DF0310EC9
:101BD8004F6E310E4E6E81EF13F00C0E011802108D
:101BE800D8A4F9EF0DF0FBEF0DF001EF0EF0310E78
:101BF8004F6E320E4E6E81EF13F00D0E011802106B
:101C0800D8A409EF0EF00BEF0EF011EF0EF0310E25
:101C18004F6E330E4E6E81EF13F00E0E0118021048
:101C2800D8A419EF0EF01BEF0EF021EF0EF0310ED5
:101C38004F6E340E4E6E81EF13F00F0E0118021026
:101C4800D8A429EF0EF02BEF0EF031EF0EF0310E85
:101C58004F6E350E4E6E81EF13F0100E0118021004
:101C6800D8A439EF0EF03BEF0EF041EF0EF0310E35
:101C78004F6E360E4E6E81EF13F0110E01180210E2
:101C8800D8A449EF0EF04BEF0EF051EF0EF0310EE5
:101C98004F6E370E4E6E81EF13F0120E01180210C0
:101CA800D8A459EF0EF05BEF0EF061EF0EF0310E95
:101CB8004F6E380E4E6E81EF13F0130E011802109E
:101CC800D8A469EF0EF06BEF0EF071EF0EF0310E45
:101CD8004F6E390E4E6E81EF13F0140E011802107C
:101CE800D8A479EF0EF07BEF0EF081EF0EF0320EF4
:101CF8004F6E300E4E6E81EF13F0150E0118021064
:101D0800D8A489EF0EF08BEF0EF091EF0EF0320EA3
:101D18004F6E310E4E6E81EF13F0160E0118021041
:101D2800D8A499EF0EF09BEF0EF0A1EF0EF0320E53
:101D38004F6E320E4E6E81EF13F0170E011802101F
:101D4800D8A4A9EF0EF0ABEF0EF0B1EF0EF0320E03
:101D58004F6E330E4E6E81EF13F0180E01180210FD
:101D6800D8A4B9EF0EF0BBEF0EF0C1EF0EF0320EB3
:101D78004F6E340E4E6E81EF13F0190E01180210DB
:101D8800D8A4C9EF0EF0CBEF0EF0D1EF0EF0320E63
:101D98004F6E350E4E6E81EF13F01A0E01180210B9
:101DA800D8A4D9EF0EF0DBEF0EF0E1EF0EF0320E13
:101DB8004F6E360E4E6E81EF13F01B0E0118021097
:101DC800D8A4E9EF0EF0EBEF0EF0F1EF0EF0320EC3
:101DD8004F6E370E4E6E81EF13F01C0E0118021075
:101DE800D8A4F9EF0EF0FBEF0EF001EF0FF0320E72
:101DF8004F6E380E4E6E81EF13F01D0E0118021053
:101E0800D8A409EF0FF00BEF0FF011EF0FF0320E1F
:101E18004F6E390E4E6E81EF13F01E0E0118021030
:101E2800D8A419EF0FF01BEF0FF021EF0FF0330ECE
:101E38004F6E300E4E6E81EF13F01F0E0118021018
:101E4800D8A429EF0FF02BEF0FF031EF0FF0330E7E
:101E58004F6E310E4E6E81EF13F0200E01180210F6
:101E6800D8A439EF0FF03BEF0FF041EF0FF0330E2E
:101E78004F6E320E4E6E81EF13F0210E01180210D4
:101E8800D8A449EF0FF04BEF0FF051EF0FF0330EDE
:101E98004F6E330E4E6E81EF13F0220E01180210B2
:101EA800D8A459EF0FF05BEF0FF061EF0FF0330E8E
:101EB8004F6E340E4E6E81EF13F0230E0118021090
:101EC800D8A469EF0FF06BEF0FF071EF0FF0330E3E
:101ED8004F6E350E4E6E81EF13F0240E011802106E
:101EE800D8A479EF0FF07BEF0FF081EF0FF0330EEE
:101EF8004F6E360E4E6E81EF13F0250E011802104C
:101F0800D8A489EF0FF08BEF0FF091EF0FF0330E9D
:101F18004F6E370E4E6E81EF13F0260E0118021029
:101F2800D8A499EF0FF09BEF0FF0A1EF0FF0330E4D
:101F38004F6E380E4E6E81EF13F0270E0118021007
:101F4800D8A4A9EF0FF0ABEF0FF0B1EF0FF0330EFD
:101F58004F6E390E4E6E81EF13F0280E01180210E5
:101F6800D8A4B9EF0FF0BBEF0FF0C1EF0FF0340EAC
:101F78004F6E300E4E6E81EF13F0290E01180210CD
:101F8800D8A4C9EF0FF0CBEF0FF0D1EF0FF0340E5C
:101F98004F6E310E4E6E81EF13F02A0E01180210AB
:101FA800D8A4D9EF0FF0DBEF0FF0E1EF0FF0340E0C
:101FB8004F6E320E4E6E81EF13F02B0E0118021089
:101FC800D8A4E9EF0FF0EBEF0FF0F1EF0FF0340EBC
:101FD8004F6E330E4E6E81EF13F02C0E0118021067
:101FE800D8A4F9EF0FF0FBEF0FF001EF10F0340E6B
:101FF8004F6E340E4E6E81EF13F02D0E0118021045
:10200800D8A409EF10F00BEF10F011EF10F0340E18
:102018004F6E350E4E6E81EF13F02E0E0118021022
:10202800D8A419EF10F01BEF10F021EF10F0340EC8
:102038004F6E360E4E6E81EF13F02F0E0118021000
:10204800D8A429EF10F02BEF10F031EF10F0340E78
:102058004F6E370E4E6E81EF13F0300E01180210DE
:10206800D8A439EF10F03BEF10F041EF10F0340E28
:102078004F6E380E4E6E81EF13F0310E01180210BC
:10208800D8A449EF10F04BEF10F051EF10F0340ED8
:102098004F6E390E4E6E81EF13F0320E011802109A
:1020A800D8A459EF10F05BEF10F061EF10F0350E87
:1020B8004F6E300E4E6E81EF13F0330E0118021082
:1020C800D8A469EF10F06BEF10F071EF10F0350E37
:1020D8004F6E310E4E6E81EF13F0340E0118021060
:1020E800D8A479EF10F07BEF10F081EF10F0350EE7
:1020F8004F6E320E4E6E81EF13F0350E011802103E
:10210800D8A489EF10F08BEF10F091EF10F0350E96
:102118004F6E330E4E6E81EF13F0360E011802101B
:10212800D8A499EF10F09BEF10F0A1EF10F0350E46
:102138004F6E340E4E6E81EF13F0370E01180210F9
:10214800D8A4A9EF10F0ABEF10F0B1EF10F0350EF6
:102158004F6E350E4E6E81EF13F0380E01180210D7
:10216800D8A4B9EF10F0BBEF10F0C1EF10F0350EA6
:102178004F6E360E4E6E81EF13F0390E01180210B5
:10218800D8A4C9EF10F0CBEF10F0D1EF10F0350E56
:102198004F6E370E4E6E81EF13F03A0E0118021093
:1021A800D8A4D9EF10F0DBEF10F0E1EF10F0350E06
:1021B8004F6E380E4E6E81EF13F03B0E0118021071
:1021C800D8A4E9EF10F0EBEF10F0F1EF10F0350EB6
:1021D8004F6E390E4E6E81EF13F03C0E011802104F
:1021E800D8A4F9EF10F0FBEF10F001EF11F0360E64
:1021F8004F6E300E4E6E81EF13F03D0E0118021037
:10220800D8A409EF11F00BEF11F011EF11F0360E11
:102218004F6E310E4E6E81EF13F03E0E0118021014
:10222800D8A419EF11F01BEF11F021EF11F0360EC1
:102238004F6E320E4E6E81EF13F03F0E01180210F2
:10224800D8A429EF11F02BEF11F031EF11F0360E71
:102258004F6E330E4E6E81EF13F0400E01180210D0
:10226800D8A439EF11F03BEF11F041EF11F0360E21
:102278004F6E340E4E6E81EF13F0410E01180210AE
:10228800D8A449EF11F04BEF11F051EF11F0360ED1
:102298004F6E350E4E6E81EF13F0420E011802108C
:1022A800D8A459EF11F05BEF11F061EF11F0360E81
:1022B8004F6E360E4E6E81EF13F0430E011802106A
:1022C800D8A469EF11F06BEF11F071EF11F0360E31
:1022D8004F6E370E4E6E81EF13F0440E0118021048
:1022E800D8A479EF11F07BEF11F081EF11F0360EE1
:1022F8004F6E380E4E6E81EF13F0450E0118021026
:10230800D8A489EF11F08BEF11F091EF11F0360E90
:102318004F6E390E4E6E81EF13F0460E0118021003
:10232800D8A499EF11F09BEF11F0A1EF11F0370E3F
:102338004F6E300E4E6E81EF13F0470E01180210EB
:10234800D8A4A9EF11F0ABEF11F0B1EF11F0370EEF
:102358004F6E310E4E6E81EF13F0480E01180210C9
:10236800D8A4B9EF11F0BBEF11F0C1EF11F0370E9F
:102378004F6E320E4E6E81EF13F0490E01180210A7
:10238800D8A4C9EF11F0CBEF11F0D1EF11F0370E4F
:102398004F6E330E4E6E81EF13F04A0E0118021085
:1023A800D8A4D9EF11F0DBEF11F0E1EF11F0370EFF
:1023B8004F6E340E4E6E81EF13F04B0E0118021063
:1023C800D8A4E9EF11F0EBEF11F0F1EF11F0370EAF
:1023D8004F6E350E4E6E81EF13F04C0E0118021041
:1023E800D8A4F9EF11F0FBEF11F001EF12F0370E5E
:1023F8004F6E360E4E6E81EF13F04D0E011802101F
:10240800D8A409EF12F00BEF12F011EF12F0370E0B
:102418004F6E370E4E6E81EF13F04E0E01180210FC
:10242800D8A419EF12F01BEF12F021EF12F0370EBB
:102438004F6E380E4E6E81EF13F04F0E01180210DA
:10244800D8A429EF12F02BEF12F031EF12F0370E6B
:102458004F6E390E4E6E81EF13F0500E01180210B8
:10246800D8A439EF12F03BEF12F041EF12F0380E1A
:102478004F6E300E4E6E81EF13F0510E01180210A0
:10248800D8A449EF12F04BEF12F051EF12F0380ECA
:102498004F6E310E4E6E81EF13F0520E011802107E
:1024A800D8A459EF12F05BEF12F061EF12F0380E7A
:1024B8004F6E320E4E6E81EF13F0530E011802105C
:1024C800D8A469EF12F06BEF12F071EF12F0380E2A
:1024D8004F6E330E4E6E81EF13F0540E011802103A
:1024E800D8A479EF12F07BEF12F081EF12F0380EDA
:1024F8004F6E340E4E6E81EF13F0550E0118021018
:10250800D8A489EF12F08BEF12F091EF12F0380E89
:102518004F6E350E4E6E81EF13F0560E01180210F5
:10252800D8A499EF12F09BEF12F0A1EF12F0380E39
:102538004F6E360E4E6E81EF13F0570E01180210D3
:10254800D8A4A9EF12F0ABEF12F0B1EF12F0380EE9
:102558004F6E370E4E6E81EF13F0580E01180210B1
:10256800D8A4B9EF12F0BBEF12F0C1EF12F0380E99
:102578004F6E380E4E6E81EF13F0590E011802108F
:10258800D8A4C9EF12F0CBEF12F0D1EF12F0380E49
:102598004F6E390E4E6E81EF13F05A0E011802106D
:1025A800D8A4D9EF12F0DBEF12F0E1EF12F0390EF8
:1025B8004F6E300E4E6E81EF13F05B0E0118021055
:1025C800D8A4E9EF12F0EBEF12F0F1EF12F0390EA8
:1025D8004F6E310E4E6E81EF13F05C0E0118021033
:1025E800D8A4F9EF12F0FBEF12F001EF13F0390E57
:1025F8004F6E320E4E6E81EF13F05D0E0118021011
:10260800D8A409EF13F00BEF13F011EF13F0390E04
:102618004F6E330E4E6E81EF13F05E0E01180210EE
:10262800D8A419EF13F01BEF13F021EF13F0390EB4
:102638004F6E340E4E6E81EF13F05F0E01180210CC
:10264800D8A429EF13F02BEF13F031EF13F0390E64
:102658004F6E350E4E6E81EF13F0600E01180210AA
:10266800D8A439EF13F03BEF13F041EF13F0390E14
:102678004F6E360E4E6E81EF13F0610E0118021088
:10268800D8A449EF13F04BEF13F051EF13F0390EC4
:102698004F6E370E4E6E81EF13F0620E0118021066
:1026A800D8A459EF13F05BEF13F061EF13F0390E74
:1026B8004F6E380E4E6E81EF13F0630E0118021044
:1026C800D8A469EF13F06BEF13F0AFEF0DF0390EEC
:1026D8004F6E390E4E6E81EF13F0640E0118021022
:1026E800D8A479EF13F07BEF13F081EF13F0310EDC
:1026F800506E300E4F6E300E4E6E120002BE90EFCE
:1027080013F0025007E10A0E015CD8B08EEF13F007
:1027180090EF13F02EEF14F002BE9EEF13F002506C
:1027280007E1640E015CD8B09CEF13F09EEF13F044
:102738002EEF14F0200E536E200E526E0150021030
:10274800D8A4A9EF13F0ABEF13F0AFEF13F0300EEE
:10275800516EFEEF19F001040210D8A4B6EF13F081
:10276800B8EF13F0BCEF13F0310E516EFEEF19F015
:10277800020E01180210D8A4C4EF13F0C6EF13F02C
:10278800CAEF13F0320E516EFEEF19F0030E011866
:102798000210D8A4D2EF13F0D4EF13F0D8EF13F04F
:1027A800330E516EFEEF19F0040E01180210D8A472
:1027B800E0EF13F0E2EF13F0E6EF13F0340E516E92
:1027C800FEEF19F0050E01180210D8A4EEEF13F071
:1027D800F0EF13F0F4EF13F0350E516EFEEF19F031
:1027E800060E01180210D8A4FCEF13F0FEEF13F048
:1027F80002EF14F0360E516EFEEF19F0070E0118B5
:102808000210D8A40AEF14F00CEF14F010EF14F033
:10281800370E516EFEEF19F0080E01180210D8A4F9
:1028280018EF14F01AEF14F01EEF14F0380E516E72
:10283800FEEF19F0090E01180210D8A426EF14F0C3
:1028480028EF14F02CEF14F0390E516EFEEF19F04A
:10285800FEEF19F00A0E01180210D8A436EF14F092
:1028680038EF14F040EF14F0200E536E310E526E14
:10287800300E516EFEEF19F002BE4CEF14F002500C
:1028880009E10B0E015CD8A04CEF14F04EEF14F0E8
:10289800EEEF19F002BE5CEF14F0025007E1640E8F
:1028A800015CD8B05AEF14F05CEF14F0EEEF19F0B9
:1028B800200E536E0B0E01180210D8A466EF14F008
:1028C80068EF14F06EEF14F0310E526E310E516E47
:1028D800FEEF19F00C0E01180210D8A476EF14F0D0
:1028E80078EF14F07EEF14F0310E526E320E516E06
:1028F800FEEF19F00D0E01180210D8A486EF14F09F
:1029080088EF14F08EEF14F0310E526E330E516EC4
:10291800FEEF19F00E0E01180210D8A496EF14F06D
:1029280098EF14F09EEF14F0310E526E340E516E83
:10293800FEEF19F00F0E01180210D8A4A6EF14F03C
:10294800A8EF14F0AEEF14F0310E526E350E516E42
:10295800FEEF19F0100E01180210D8A4B6EF14F00B
:10296800B8EF14F0BEEF14F0310E526E360E516E01
:10297800FEEF19F0110E01180210D8A4C6EF14F0DA
:10298800C8EF14F0CEEF14F0310E526E370E516EC0
:10299800FEEF19F0120E01180210D8A4D6EF14F0A9
:1029A800D8EF14F0DEEF14F0310E526E380E516E7F
:1029B800FEEF19F0130E01180210D8A4E6EF14F078
:1029C800E8EF14F0EEEF14F0310E526E390E516E3E
:1029D800FEEF19F0140E01180210D8A4F6EF14F047
:1029E800F8EF14F0FEEF14F0320E526E300E516E06
:1029F800FEEF19F0150E01180210D8A406EF15F015
:102A080008EF15F00EEF15F0320E526E310E516EC2
:102A1800FEEF19F0160E01180210D8A416EF15F0E3
:102A280018EF15F01EEF15F0320E526E320E516E81
:102A3800FEEF19F0170E01180210D8A426EF15F0B2
:102A480028EF15F02EEF15F0320E526E330E516E40
:102A5800FEEF19F0180E01180210D8A436EF15F081
:102A680038EF15F03EEF15F0320E526E340E516EFF
:102A7800FEEF19F0190E01180210D8A446EF15F050
:102A880048EF15F04EEF15F0320E526E350E516EBE
:102A9800FEEF19F01A0E01180210D8A456EF15F01F
:102AA80058EF15F05EEF15F0320E526E360E516E7D
:102AB800FEEF19F01B0E01180210D8A466EF15F0EE
:102AC80068EF15F06EEF15F0320E526E370E516E3C
:102AD800FEEF19F01C0E01180210D8A476EF15F0BD
:102AE80078EF15F07EEF15F0320E526E380E516EFB
:102AF800FEEF19F01D0E01180210D8A486EF15F08C
:102B080088EF15F08EEF15F0320E526E390E516EB9
:102B1800FEEF19F01E0E01180210D8A496EF15F05A
:102B280098EF15F09EEF15F0330E526E300E516E81
:102B3800FEEF19F01F0E01180210D8A4A6EF15F029
:102B4800A8EF15F0AEEF15F0330E526E310E516E40
:102B5800FEEF19F0200E01180210D8A4B6EF15F0F8
:102B6800B8EF15F0BEEF15F0330E526E320E516EFF
:102B7800FEEF19F0210E01180210D8A4C6EF15F0C7
:102B8800C8EF15F0CEEF15F0330E526E330E516EBE
:102B9800FEEF19F0220E01180210D8A4D6EF15F096
:102BA800D8EF15F0DEEF15F0330E526E340E516E7D
:102BB800FEEF19F0230E01180210D8A4E6EF15F065
:102BC800E8EF15F0EEEF15F0330E526E350E516E3C
:102BD800FEEF19F0240E01180210D8A4F6EF15F034
:102BE800F8EF15F0FEEF15F0330E526E360E516EFB
:102BF800FEEF19F0250E01180210D8A406EF16F002
:102C080008EF16F00EEF16F0330E526E370E516EB7
:102C1800FEEF19F0260E01180210D8A416EF16F0D0
:102C280018EF16F01EEF16F0330E526E380E516E76
:102C3800FEEF19F0270E01180210D8A426EF16F09F
:102C480028EF16F02EEF16F0330E526E390E516E35
:102C5800FEEF19F0280E01180210D8A436EF16F06E
:102C680038EF16F03EEF16F0340E526E300E516EFD
:102C7800FEEF19F0290E01180210D8A446EF16F03D
:102C880048EF16F04EEF16F0340E526E310E516EBC
:102C9800FEEF19F02A0E01180210D8A456EF16F00C
:102CA80058EF16F05EEF16F0340E526E320E516E7B
:102CB800FEEF19F02B0E01180210D8A466EF16F0DB
:102CC80068EF16F06EEF16F0340E526E330E516E3A
:102CD800FEEF19F02C0E01180210D8A476EF16F0AA
:102CE80078EF16F07EEF16F0340E526E340E516EF9
:102CF800FEEF19F02D0E01180210D8A486EF16F079
:102D080088EF16F08EEF16F0340E526E350E516EB7
:102D1800FEEF19F02E0E01180210D8A496EF16F047
:102D280098EF16F09EEF16F0340E526E360E516E76
:102D3800FEEF19F02F0E01180210D8A4A6EF16F016
:102D4800A8EF16F0AEEF16F0340E526E370E516E35
:102D5800FEEF19F0300E01180210D8A4B6EF16F0E5
:102D6800B8EF16F0BEEF16F0340E526E380E516EF4
:102D7800FEEF19F0310E01180210D8A4C6EF16F0B4
:102D8800C8EF16F0CEEF16F0340E526E390E516EB3
:102D9800FEEF19F0320E01180210D8A4D6EF16F083
:102DA800D8EF16F0DEEF16F0350E526E300E516E7B
:102DB800FEEF19F0330E01180210D8A4E6EF16F052
:102DC800E8EF16F0EEEF16F0350E526E310E516E3A
:102DD800FEEF19F0340E01180210D8A4F6EF16F021
:102DE800F8EF16F0FEEF16F0350E526E320E516EF9
:102DF800FEEF19F0350E01180210D8A406EF17F0EF
:102E080008EF17F00EEF17F0350E526E330E516EB5
:102E1800FEEF19F0360E01180210D8A416EF17F0BD
:102E280018EF17F01EEF17F0350E526E340E516E74
:102E3800FEEF19F0370E01180210D8A426EF17F08C
:102E480028EF17F02EEF17F0350E526E350E516E33
:102E5800FEEF19F0380E01180210D8A436EF17F05B
:102E680038EF17F03EEF17F0350E526E360E516EF2
:102E7800FEEF19F0390E01180210D8A446EF17F02A
:102E880048EF17F04EEF17F0350E526E370E516EB1
:102E9800FEEF19F03A0E01180210D8A456EF17F0F9
:102EA80058EF17F05EEF17F0350E526E380E516E70
:102EB800FEEF19F03B0E01180210D8A466EF17F0C8
:102EC80068EF17F06EEF17F0350E526E390E516E2F
:102ED800FEEF19F03C0E01180210D8A476EF17F097
:102EE80078EF17F07EEF17F0360E526E300E516EF7
:102EF800FEEF19F03D0E01180210D8A486EF17F066
:102F080088EF17F08EEF17F0360E526E310E516EB5
:102F1800FEEF19F03E0E01180210D8A496EF17F034
:102F280098EF17F09EEF17F0360E526E320E516E74
:102F3800FEEF19F03F0E01180210D8A4A6EF17F003
:102F4800A8EF17F0AEEF17F0360E526E330E516E33
:102F5800FEEF19F0400E01180210D8A4B6EF17F0D2
:102F6800B8EF17F0BEEF17F0360E526E340E516EF2
:102F7800FEEF19F0410E01180210D8A4C6EF17F0A1
:102F8800C8EF17F0CEEF17F0360E526E350E516EB1
:102F9800FEEF19F0420E01180210D8A4D6EF17F070
:102FA800D8EF17F0DEEF17F0360E526E360E516E70
:102FB800FEEF19F0430E01180210D8A4E6EF17F03F
:102FC800E8EF17F0EEEF17F0360E526E370E516E2F
:102FD800FEEF19F0440E01180210D8A4F6EF17F00E
:102FE800F8EF17F0FEEF17F0360E526E380E516EEE
:102FF800FEEF19F0450E01180210D8A406EF18F0DC
:1030080008EF18F00EEF18F0360E526E390E516EAA
:10301800FEEF19F0460E01180210D8A416EF18F0AA
:1030280018EF18F01EEF18F0370E526E300E516E72
:10303800FEEF19F0470E01180210D8A426EF18F079
:1030480028EF18F02EEF18F0370E526E310E516E31
:10305800FEEF19F0480E01180210D8A436EF18F048
:1030680038EF18F03EEF18F0370E526E320E516EF0
:10307800FEEF19F0490E01180210D8A446EF18F017
:1030880048EF18F04EEF18F0370E526E330E516EAF
:10309800FEEF19F04A0E01180210D8A456EF18F0E6
:1030A80058EF18F05EEF18F0370E526E340E516E6E
:1030B800FEEF19F04B0E01180210D8A466EF18F0B5
:1030C80068EF18F06EEF18F0370E526E350E516E2D
:1030D800FEEF19F04C0E01180210D8A476EF18F084
:1030E80078EF18F07EEF18F0370E526E360E516EEC
:1030F800FEEF19F04D0E01180210D8A486EF18F053
:1031080088EF18F08EEF18F0370E526E370E516EAA
:10311800FEEF19F04E0E01180210D8A496EF18F021
:1031280098EF18F09EEF18F0370E526E380E516E69
:10313800FEEF19F04F0E01180210D8A4A6EF18F0F0
:10314800A8EF18F0AEEF18F0370E526E390E516E28
:10315800FEEF19F0500E01180210D8A4B6EF18F0BF
:10316800B8EF18F0BEEF18F0380E526E300E516EF0
:10317800FEEF19F0510E01180210D8A4C6EF18F08E
:10318800C8EF18F0CEEF18F0380E526E310E516EAF
:10319800FEEF19F0520E01180210D8A4D6EF18F05D
:1031A800D8EF18F0DEEF18F0380E526E320E516E6E
:1031B800FEEF19F0530E01180210D8A4E6EF18F02C
:1031C800E8EF18F0EEEF18F0380E526E330E516E2D
:1031D800FEEF19F0540E01180210D8A4F6EF18F0FB
:1031E800F8EF18F0FEEF18F0380E526E340E516EEC
:1031F800FEEF19F0550E01180210D8A406EF19F0C9
:1032080008EF19F00EEF19F0380E526E350E516EA8
:10321800FEEF19F0560E01180210D8A416EF19F097
:1032280018EF19F01EEF19F0380E526E360E516E67
:10323800FEEF19F0570E01180210D8A426EF19F066
:1032480028EF19F02EEF19F0380E526E370E516E26
:10325800FEEF19F0580E01180210D8A436EF19F035
:1032680038EF19F03EEF19F0380E526E380E516EE5
:10327800FEEF19F0590E01180210D8A446EF19F004
:1032880048EF19F04EEF19F0380E526E390E516EA4
:10329800FEEF19F05A0E01180210D8A456EF19F0D3
:1032A80058EF19F05EEF19F0390E526E300E516E6C
:1032B800FEEF19F05B0E01180210D8A466EF19F0A2
:1032C80068EF19F06EEF19F0390E526E310E516E2B
:1032D800FEEF19F05C0E01180210D8A476EF19F071
:1032E80078EF19F07EEF19F0390E526E320E516EEA
:1032F800FEEF19F05D0E01180210D8A486EF19F040
:1033080088EF19F08EEF19F0390E526E330E516EA8
:10331800FEEF19F05E0E01180210D8A496EF19F00E
:1033280098EF19F09EEF19F0390E526E340E516E67
:10333800FEEF19F05F0E01180210D8A4A6EF19F0DD
:10334800A8EF19F0AEEF19F0390E526E350E516E26
:10335800FEEF19F0600E01180210D8A4B6EF19F0AC
:10336800B8EF19F0BEEF19F0390E526E360E516EE5
:10337800FEEF19F0610E01180210D8A4C6EF19F07B
:10338800C8EF19F0CEEF19F0390E526E370E516EA4
:10339800FEEF19F0620E01180210D8A4D6EF19F04A
:1033A800D8EF19F0DEEF19F0390E526E380E516E63
:1033B800FEEF19F0630E01180210D8A4E6EF19F019
:1033C800E8EF19F02CEF14F0390E526E390E516EE9
:1033D800FEEF19F0640E01180210D8A4F6EF19F0E8
:1033E800F8EF19F0FEEF19F0310E536E300E526EF1
:1033F800300E516E12000600D9CF09F0DACF0AF06C
:10340800F3CF0BF0F4CF0CF0000E3D6E000E3C6EC7
:10341800000E3F6E000E3E6EF2A215EF1AF017EF87
:103428001AF0A2EF1BF0F292010EB9EC24F0000E94
:10343800026E050E016E49EC24F0060EB9EC24F07C
:10344800000E026E050E016E49EC24F0800EB9ECF8
:1034580024F0000E026E050E016E49EC24F0000EF9
:103468000E6E000E0D6E600E0D24D96E000E0E202D
:10347800DA6EDF50C6EC24F0000E026E050E016E07
:1034880049EC24F00D4A0E2A0EBE54EF1AF00E50E5
:1034980009E10F0E0D5CD8A054EF1AF056EF1AF0A0
:1034A80037EF1AF0C00EB9EC24F0000E026E050ECC
:1034B800016E49EC24F0200EC6EC24F0000E026EDA
:1034C800050E016E49EC24F0200EC6EC24F0000E27
:1034D800026E050E016E49EC24F075EF1AF028EC27
:1034E8001EF03C503D10D8B47CEF1AF07EEF1AF075
:1034F80073EF1AF0130E026E880E016E49EC24F079
:1035080044C001F045C002F0EAEC24F0015002107A
:10351800D8A491EF1AF093EF1AF09FEF1AF044C075
:1035280001F045C002F0000E046E010E036E61EC5E
:1035380024F0ECEF1AF044C001F045C002F0EAECC8
:1035480024F001040210D8A4ACEF1AF0AEEF1AF080
:10355800ECEF1AF0010EB9EC24F0000E026E050E25
:10356800016E49EC24F0060EB9EC24F0000E026E50
:10357800050E016E49EC24F0800EB9EC24F0000E23
:10358800106E000E0F6E700E0F24D96E000E1020F4
:10359800DA6EDF50C6EC24F00F0E026EA00E016E3C
:1035A80049EC24F00F4A102A10BEE4EF1AF010502C
:1035B80009E10D0E0F5CD8A0E4EF1AF0E6EF1AF05F
:1035C800C7EF1AF0130E026E880E016E49EC24F054
:1035D8008FEC23F0010EB9EC24F0000E026E050EFC
:1035E800016E49EC24F0060EB9EC24F0000E026ED0
:1035F800050E016E49EC24F0800EB9EC24F0000EA3
:10360800026E050E016E49EC24F0200EC6EC24F083
:10361800000E026E050E016E49EC24F05350C6EC04
:1036280024F0000E026E050E016E49EC24F0525093
:10363800C6EC24F0000E026E050E016E49EC24F073
:103648005150C6EC24F0000E026E050E016E49ECD6
:1036580024F0000E126E000E116E230E1124D96E86
:10366800000E1220DA6EDF50C6EC24F0000E026E57
:10367800050E016E49EC24F0114A122A12BE4EEFD3
:103688001BF0125009E1090E115CD8A04EEF1BF097
:1036980050EF1BF031EF1BF0C00EB9EC24F0000E18
:1036A800026E050E016E49EC24F0200EC6EC24F0E3
:1036B800000E026E050E016E49EC24F05050C6EC67
:1036C80024F0000E026E050E016E49EC24F04F50F6
:1036D800C6EC24F0000E026E050E016E49EC24F0D3
:1036E8004E50C6EC24F0000E026E050E016E49EC39
:1036F80024F0000E146E000E136E2D0E1324D96ED6
:10370800000E1420DA6EDF50C6EC24F0000E026EB4
:10371800050E016E49EC24F0134A142A14BE9EEFDC
:103728001BF0145009E1070E135CD8A09EEF1BF0A4
:10373800A0EF1BF081EF1BF01EEF1EF0F0A0A7EF2B
:103748001BF0A9EF1BF03CEF1DF0F090010EB9EC57
:1037580024F0000E026E050E016E49EC24F0060EF0
:10376800B9EC24F0000E026E050E016E49EC24F04F
:10377800800EB9EC24F0000E026E050E016E49ECC5
:1037880024F0000E166E000E156E600E1524D96E0C
:10379800000E1620DA6EDF50C6EC24F0000E026E22
:1037A800050E016E49EC24F0154A162A16BEE6EFFE
:1037B8001BF0165009E10F0E155CD8A0E6EF1BF0C0
:1037C800E8EF1BF0C9EF1BF0C00EB9EC24F0000EB7
:1037D800026E050E016E49EC24F0200EC6EC24F0B2
:1037E800000E026E050E016E49EC24F0200EC6ECA8
:1037F80024F0000E026E050E016E49EC24F0000E56
:103808003F6E000E3E6E000E3D6E000E3C6E0FEFDA
:103818001CF028EC1EF03C503D10D8B416EF1CF0FC
:1038280018EF1CF00DEF1CF0130E026E880E016EDF
:1038380049EC24F044C001F045C002F0EAEC24F061
:1038480001040210D8A42BEF1CF02DEF1CF039EF67
:103858001CF044C001F045C002F0000E046E000EDA
:10386800036E61EC24F086EF1CF044C001F045C003
:1038780002F0EAEC24F001500210D8A446EF1CF044
:1038880048EF1CF086EF1CF0010EB9EC24F0000E96
:10389800026E050E016E49EC24F0060EB9EC24F018
:1038A800000E026E050E016E49EC24F0800EB9EC94
:1038B80024F0000E186E000E176E700E1724D96EC5
:1038C800000E1820DA6EDF50C6EC24F0000E026EEF
:1038D800050E016E49EC24F0174A182A18BE7EEF2F
:1038E8001CF0185009E1080E175CD8A07EEF1CF0F8
:1038F80080EF1CF061EF1CF0130E026E880E016E53
:1039080049EC24F08FEC23F0010EB9EC24F0000E02
:10391800026E050E016E49EC24F0060EB9EC24F097
:10392800000E026E050E016E49EC24F0800EB9EC13
:1039380024F0000E026E050E016E49EC24F0200EF4
:10394800C6EC24F0000E026E050E016E49EC24F060
:103958005350C6EC24F0000E026E050E016E49ECC1
:1039680024F05250C6EC24F0000E026E050E016ED3
:1039780049EC24F05150C6EC24F0000E026E050EFE
:10398800016E49EC24F0000E1A6E000E196E230E1B
:103998001924D96E000E1A20DA6EDF50C6EC24F016
:1039A800000E026E050E016E49EC24F0194A1A2A1F
:1039B8001ABEE8EF1CF01A5009E1090E195CD8A0EC
:1039C800E8EF1CF0EAEF1CF0CBEF1CF0C00EB9ECEE
:1039D80024F0000E026E050E016E49EC24F0200E54
:1039E800C6EC24F0000E026E050E016E49EC24F0C0
:1039F8005050C6EC24F0000E026E050E016E49EC24
:103A080024F04F50C6EC24F0000E026E050E016E35
:103A180049EC24F04E50C6EC24F0000E026E050E60
:103A2800016E49EC24F0000E1C6E000E1B6E2D0E6C
:103A38001B24D96E000E1C20DA6EDF50C6EC24F071
:103A4800000E026E050E016E49EC24F01B4A1C2A7A
:103A58001CBE38EF1DF01C5009E1070E1B5CD8A0F6
:103A680038EF1DF03AEF1DF01BEF1DF01EEF1EF0B2
:103A7800F0A241EF1DF043EF1DF01EEF1EF0F09293
:103A8800000E1E6E000E1D6E1DC001F01EC002F05D
:103A9800000E046E000E036E61EC24F01D4A1E2A0F
:103AA8001EBE60EF1DF01E5009E1640E1D5CD8A01B
:103AB80060EF1DF062EF1DF048EF1DF08FEC23F072
:103AC800010EB9EC24F0000E026E050E016E49ECF1
:103AD80024F0060EB9EC24F0000E026E050E016EFD
:103AE80049EC24F0800EB9EC24F0000E026E050EAD
:103AF800016E49EC24F0200EC6EC24F0000E026E94
:103B0800050E016E49EC24F05350C6EC24F0000E6B
:103B1800026E050E016E49EC24F05250C6EC24F0FA
:103B2800000E026E050E016E49EC24F05150C6ECF1
:103B380024F0000E026E050E016E49EC24F0000E12
:103B4800206E000E1F6E20BEB3EF1DF0205009E15D
:103B5800090E1F5CD8A0B3EF1DF0B5EF1DF0B7EF4D
:103B68001DF0CAEF1DF0230E1F24D96E000E202071
:103B7800DA6EDF50C6EC24F0000E026E050E016E00
:103B880049EC24F01F4A202AA7EF1DF0C00EB9EC1B
:103B980024F0000E026E050E016E49EC24F0200E92
:103BA800C6EC24F0000E026E050E016E49EC24F0FE
:103BB8005050C6EC24F0000E026E050E016E49EC62
:103BC80024F04F50C6EC24F0000E026E050E016E74
:103BD80049EC24F04E50C6EC24F0000E026E050E9F
:103BE800016E49EC24F0000E226E000E216E22BEFA
:103BF80007EF1EF0225009E1070E215CD8A007EF5D
:103C08001EF009EF1EF00BEF1EF01EEF1EF02D0E3A
:103C18002124D96E000E2220DA6EDF50C6EC24F083
:103C2800000E026E050E016E49EC24F0214A222A8C
:103C3800FBEF1DF00CC0F4FF0BC0F3FF0AC0DAFF66
:103C480009C0D9FF5492110081868092809081A882
:103C580030EF1EF032EF1EF081EF1EF0000E026E04
:103C6800640E016E49EC24F081B83DEF1EF03FEF81
:103C78001EF038EF1EF0000E476E010E466E310E34
:103C8800C6EC24F0000E026E0A0E016E49EC24F018
:103C9800010E3E243E6E000E3F203F6E3E043F1054
:103CA800D8A459EF1EF05BEF1EF061EF1EF0000E76
:103CB8004D6E010E4C6E81EF1EF0020E3E183F1045
:103CC800D8A469EF1EF06BEF1EF071EF1EF0000E26
:103CD8004B6E010E4A6E81EF1EF0030E3E183F1028
:103CE800D8A479EF1EF07BEF1EF081EF1EF0000ED6
:103CF800496E010E486E81EF1EF081AA86EF1EF014
:103D080088EF1EF0D7EF1EF0000E026E640E016EF3
:103D180049EC24F081BA93EF1EF095EF1EF08EEF78
:103D28001EF0000E476E040E466E340EC6EC24F0EC
:103D3800000E026E0A0E016E49EC24F0010E3E24BC
:103D48003E6E000E3F203F6E3E043F10D8A4AFEFFA
:103D58001EF0B1EF1EF0B7EF1EF0000E4D6E040E10
:103D68004C6ED7EF1EF0020E3E183F10D8A4BFEFDE
:103D78001EF0C1EF1EF0C7EF1EF0000E4B6E040ED2
:103D88004A6ED7EF1EF0030E3E183F10D8A4CFEFAF
:103D98001EF0D1EF1EF0D7EF1EF0000E496E040E94
:103DA800486ED7EF1EF081ACDCEF1EF0DEEF1EF0A0
:103DB8002DEF1FF0000E026E640E016E49EC24F028
:103DC80081BCE9EF1EF0EBEF1EF0E4EF1EF0000EF1
:103DD800476E070E466E370EC6EC24F0000E026ED4
:103DE8000A0E016E49EC24F0010E3E243E6E000ED0
:103DF8003F203F6E3E043F10D8A405EF1FF007EFA9
:103E08001FF00DEF1FF0000E4D6E070E4C6E2DEFDC
:103E18001FF0020E3E183F10D8A415EF1FF017EF41
:103E28001FF01DEF1FF0000E4B6E070E4A6E2DEFB0
:103E38001FF0030E3E183F10D8A425EF1FF027EF00
:103E48001FF02DEF1FF0000E496E070E486E2DEF84
:103E58001FF081AE32EF1FF034EF1FF083EF1FF039
:103E6800000E026E640E016E49EC24F081BE3FEF35
:103E78001FF041EF1FF03AEF1FF0000E476E000EE3
:103E8800466E300EC6EC24F0000E026E0A0E016E6D
:103E980049EC24F0010E3E243E6E000E3F203F6E9A
:103EA8003E043F10D8A45BEF1FF05DEF1FF063EFF7
:103EB8001FF0000E4D6E000E4C6E83EF1FF0020EC9
:103EC8003E183F10D8A46BEF1FF06DEF1FF073EF93
:103ED8001FF0000E4B6E000E4A6E83EF1FF0030EAC
:103EE8003E183F10D8A47BEF1FF07DEF1FF083EF43
:103EF8001FF0000E496E000E486E83EF1FF081968A
:103F08008082809081A88BEF1FF08DEF1FF0DCEF8F
:103F18001FF0000E026E640E016E49EC24F081B8A9
:103F280098EF1FF09AEF1FF093EF1FF0000E476E07
:103F3800020E466E320EC6EC24F0000E026E0A0E19
:103F4800016E49EC24F0010E3E243E6E000E3F2027
:103F58003F6E3E043F10D8A4B4EF1FF0B6EF1FF039
:103F6800BCEF1FF0000E4D6E020E4C6EDCEF1FF022
:103F7800020E3E183F10D8A4C4EF1FF0C6EF1FF082
:103F8800CCEF1FF0000E4B6E020E4A6EDCEF1FF0F6
:103F9800030E3E183F10D8A4D4EF1FF0D6EF1FF041
:103FA800DCEF1FF0000E496E020E486EDCEF1FF0CA
:103FB80081AAE1EF1FF0E3EF1FF032EF20F0000ECF
:103FC800026E640E016E49EC24F081BAEEEF1FF028
:103FD800F0EF1FF0E9EF1FF0000E476E050E466E7A
:103FE800350EC6EC24F0000E026E0A0E016E49EC86
:103FF80024F0010E3E243E6E000E3F203F6E3E042C
:104008003F10D8A40AEF20F00CEF20F012EF20F0B8
:10401800000E4D6E050E4C6E32EF20F0020E3E186B
:104028003F10D8A41AEF20F01CEF20F022EF20F068
:10403800000E4B6E050E4A6E32EF20F0030E3E184E
:104048003F10D8A42AEF20F02CEF20F032EF20F018
:10405800000E496E050E486E32EF20F081AC37EF46
:1040680020F039EF20F088EF20F0000E026E640E89
:10407800016E49EC24F081BC44EF20F046EF20F0BB
:104088003FEF20F0000E476E080E466E380EC6EC65
:1040980024F0000E026E0A0E016E49EC24F0010EA7
:1040A8003E243E6E000E3F203F6E3E043F10D8A4D3
:1040B80060EF20F062EF20F068EF20F0000E4D6E08
:1040C800080E4C6E88EF20F0020E3E183F10D8A460
:1040D80070EF20F072EF20F078EF20F0000E4B6EBA
:1040E800080E4A6E88EF20F0030E3E183F10D8A441
:1040F80080EF20F082EF20F088EF20F0000E496E6C
:10410800080E486E88EF20F081AE8DEF20F08FEF1B
:1041180020F0DEEF20F0000E026E640E016E49EC16
:1041280024F081BE9AEF20F09CEF20F095EF20F06C
:10413800000E476E000E466E300EC6EC24F0000EE0
:10414800026E0A0E016E49EC24F0010E3E243E6E0A
:10415800000E3F203F6E3E043F10D8A4B6EF20F07B
:10416800B8EF20F0BEEF20F0000E4D6E000E4C6E42
:10417800DEEF20F0020E3E183F10D8A4C6EF20F064
:10418800C8EF20F0CEEF20F0000E4B6E000E4A6E06
:10419800DEEF20F0030E3E183F10D8A4D6EF20F033
:1041A800D8EF20F0DEEF20F0000E496E000E486ECA
:1041B800DEEF20F081968092808081A8E6EF20F0E3
:1041C800E8EF20F037EF21F0000E026E640E016E6A
:1041D80049EC24F081B8F3EF20F0F5EF20F0EEEF92
:1041E80020F0000E476E030E466E330EC6EC24F028
:1041F800000E026E0A0E016E49EC24F0010E3E24F8
:104208003E6E000E3F203F6E3E043F10D8A40FEFD5
:1042180021F011EF21F017EF21F0000E4D6E030E83
:104228004C6E37EF21F0020E3E183F10D8A41FEF56
:1042380021F021EF21F027EF21F0000E4B6E030E45
:104248004A6E37EF21F0030E3E183F10D8A42FEF27
:1042580021F031EF21F037EF21F0000E496E030E07
:10426800486E37EF21F081AA3CEF21F03EEF21F0B4
:104278008DEF21F0000E026E640E016E49EC24F001
:1042880081BA49EF21F04BEF21F044EF21F0000E05
:10429800476E060E466E360EC6EC24F0000E026E11
:1042A8000A0E016E49EC24F0010E3E243E6E000E0B
:1042B8003F203F6E3E043F10D8A465EF21F067EF22
:1042C80021F06DEF21F0000E4D6E060E4C6E8DEF55
:1042D80021F0020E3E183F10D8A475EF21F077EFB9
:1042E80021F07DEF21F0000E4B6E060E4A6E8DEF29
:1042F80021F0030E3E183F10D8A485EF21F087EF78
:1043080021F08DEF21F0000E496E060E486E8DEFFC
:1043180021F081AC92EF21F094EF21F0E3EF21F04E
:10432800000E026E640E016E49EC24F081BC9FEF12
:1043380021F0A1EF21F09AEF21F0000E476E090E4F
:10434800466E390EC6EC24F0000E026E0A0E016E9F
:1043580049EC24F0010E3E243E6E000E3F203F6ED5
:104368003E043F10D8A4BBEF21F0BDEF21F0C3EF0E
:1043780021F0000E4D6E090E4C6EE3EF21F0020E97
:104388003E183F10D8A4CBEF21F0CDEF21F0D3EFAA
:1043980021F0000E4B6E090E4A6EE3EF21F0030E7A
:1043A8003E183F10D8A4DBEF21F0DDEF21F0E3EF5A
:1043B80021F0000E496E090E486EE3EF21F081AE40
:1043C800E8EF21F0EAEF21F039EF22F0000E026E5B
:1043D800640E016E49EC24F081BEF5EF21F0F7EF91
:1043E80021F0F0EF21F0000E476E000E466E300E01
:1043F800C6EC24F0000E026E0A0E016E49EC24F0A1
:10440800010E3E243E6E000E3F203F6E3E043F10DC
:10441800D8A411EF22F013EF22F019EF22F0000ECA
:104428004D6E000E4C6E39EF22F0020E3E183F1012
:10443800D8A421EF22F023EF22F029EF22F0000E7A
:104448004B6E000E4A6E39EF22F0030E3E183F10F5
:10445800D8A431EF22F033EF22F039EF22F0000E2A
:10446800496E000E486E39EF22F0030E3E183F10D9
:10447800D8A441EF22F043EF22F049EF22F00DECEF
:1044880024F0000E3D6E010E3C6E12000F0EC16E40
:104498009290929293969388938A938C938E000E1F
:1044A800966E000E956EF288F086F088F28EF28C89
:1044B800380EAAEC24F0000E0001806F050E7F6F05
:1044C80030EC24F00E0EAAEC24F0000E0001806FF0
:1044D800050E7F6F30EC24F03AEC23F0010EAAECC5
:1044E80024F0000E0001806F050E7F6F30EC24F081
:1044F800060EAAEC24F0000E0001806F050E7F6FF7
:1045080030EC24F0800EAAEC24F0000E0001806F3D
:10451800050E7F6F30EC24F0200E9BEC24F0000E8B
:104528000001806F050E7F6F30EC24F053509BEC38
:1045380024F0000E0001806F050E7F6F30EC24F030
:1045480052509BEC24F0000E0001806F050E7F6F27
:1045580030EC24F051509BEC24F0000E0001806FE9
:10456800050E7F6F30EC24F0000E0001866F000E00
:10457800856F230E8525D96E000E8621DA6EDF50F1
:104588009BEC24F0000E0001806F050E7F6F30EC6D
:1045980024F00001854B862B86BFDCEF22F0865184
:1045A80009E1090E855DD8A0DCEF22F0DEEF22F0EC
:1045B800BDEF22F0C00EAAEC24F0000E0001806FBF
:1045C800050E7F6F30EC24F0200E9BEC24F0000EDB
:1045D8000001806F050E7F6F30EC24F050509BEC8B
:1045E80024F0000E0001806F050E7F6F30EC24F080
:1045F8004F509BEC24F0000E0001806F050E7F6F7A
:1046080030EC24F04E509BEC24F0000E0001806F3B
:10461800050E7F6F30EC24F0000E0001886F000E4D
:10462800876F2D0E8725D96E000E8821DA6EDF5030
:104638009BEC24F0000E0001806F050E7F6F30ECBC
:1046480024F00001874B882B88BF34EF23F0885172
:1046580009E1070E875DD8A034EF23F036EF23F089
:1046680015EF23F036EF23F007EF00F0000E436E4E
:10467800000E426E000E416E000E406E000E0001EC
:10468800846F000E836F83C07FF084C080F0E0ECFD
:1046980024F07FC081F080C082F000018105821182
:1046A800D8A459EF23F05BEF23F063EF23F0010E5A
:1046B8004224426E000E4320436E72EF23F0815174
:1046C8008211D8A46AEF23F06CEF23F072EF23F085
:1046D800010E4024406E000E4120416E834B842B16
:1046E80084BF80EF23F0845109E1640E835DD8A074
:1046F80080EF23F082EF23F047EF23F042C07FF0F2
:1047080043C080F087EC06F040C07FF041C080F0E5
:1047180009EC00F01200000E436E000E426E000E0F
:10472800416E000E406E000E066E000E056E05C04E
:1047380001F006C002F0EAEC24F001C003F002C068
:1047480004F003040410D8A4ACEF23F0AEEF23F078
:10475800B6EF23F0010E4224426E000E4320436E52
:10476800C5EF23F003500410D8A4BDEF23F0BFEF2A
:1047780023F0C5EF23F0010E4024406E000E4120C7
:10478800416E054A062A06BED3EF23F0065009E11A
:10479800640E055CD8A0D3EF23F0D5EF23F09BEF90
:1047A80023F042C001F043C002F082EC13F040C095
:1047B80001F041C002F005EC0DF01200160EF66E85
:1047C800490EF76E000EF86E00EE60F010EE1FF066
:1047D8000900F5CFEEFFE550E150FAE1A60EF66EBE
:1047E800490EF76E000EF86E00EE23F010EE19F089
:1047F8000900F5CFEEFFE550E150FAE100EE3CF09C
:10480800180EEE6AE806FDE15490549200014AEF52
:1048180022F04CC001F04DC002F0000E046E640E90
:10482800036E78EC24F001C007F002C008F04AC01B
:1048380001F04BC002F0000E046E0A0E036E78EC15
:1048480024F0015007260250082248500724446EDD
:1048580049500820456E1200000E0001826F000EBC
:10486800816F000E826F000E816F3DEF24F0814B47
:10487800822B7F51815D80518259D8A046EF24F068
:1048880048EF24F03BEF24F01200000E046E000EF7
:10489800036E000E046E000E036E55EF24F0034AFB
:1048A800042A0150035C02500458D8A05EEF24F09B
:1048B80060EF24F053EF24F0120001C0A9FF03C0F9
:1048C800A8FFA69EA69CA684F29E550EA76EAA0EC9
:1048D800A76EA682F28EA1A874EF24F076EF24F0DA
:1048E8006FEF24F0A198120001500302F3CF05F0F6
:1048F800F4CF06F001500402F350062602500302DA
:10490800F350062605C001F006C002F01200205040
:1049180041524B494E47204E554D4245520020507A
:0D49280052452D4F43435550494544200052
:104936000001836F83C083FF84808484000E00019E
:10494600806F030E7F6F30EC24F084941200000118
:10495600836F83C083FF84908484000E0001806F80
:10496600030E7F6F30EC24F084941200056E05C0B0
:1049760083FF84908484000E026E030E016E49EC60
:1049860024F084941200056E05C083FF848084841D
:10499600000E026E030E016E49EC24F084941200A0
:1049A600204F434355504945440020564143414E0C
:0949B6005400204E494345200045
:1049C0007FC0A9FFA694A69EA680A8CF7FF0000175
:1049D000806B120001C0A9FFA694A69EA680A8CF56
:0649E00001F0026A120062
:020000040020DA
:08000000FFFFFFFFFFFFFFFF00
:020000040030CA
:0E000000000C191EFF8185FF0FC00FE00F409E
:00000001FF
